{
    "contractName": "SmartShopper",
    "abi": [
        {
            "inputs": [],
            "stateMutability": "nonpayable",
            "type": "constructor"
        },
        {
            "inputs": [
                {
                    "internalType": "string",
                    "name": "_productID",
                    "type": "string"
                },
                {
                    "internalType": "string",
                    "name": "_productName",
                    "type": "string"
                },
                {
                    "internalType": "uint256",
                    "name": "_price",
                    "type": "uint256"
                }
            ],
            "name": "addProduct",
            "outputs": [],
            "stateMutability": "nonpayable",
            "type": "function"
        },
        {
            "inputs": [],
            "name": "deposit",
            "outputs": [],
            "stateMutability": "payable",
            "type": "function"
        },
        {
            "inputs": [
                {
                    "internalType": "string",
                    "name": "_productID",
                    "type": "string"
                }
            ],
            "name": "orderProduct",
            "outputs": [],
            "stateMutability": "payable",
            "type": "function"
        },
        {
            "inputs": [
                {
                    "internalType": "uint256",
                    "name": "",
                    "type": "uint256"
                }
            ],
            "name": "productList",
            "outputs": [
                {
                    "internalType": "string",
                    "name": "productID",
                    "type": "string"
                },
                {
                    "internalType": "string",
                    "name": "productName",
                    "type": "string"
                },
                {
                    "internalType": "uint256",
                    "name": "price",
                    "type": "uint256"
                },
                {
                    "internalType": "bool",
                    "name": "inStock",
                    "type": "bool"
                },
                {
                    "internalType": "address payable",
                    "name": "sellerAddr",
                    "type": "address"
                }
            ],
            "stateMutability": "view",
            "type": "function"
        },
        {
            "inputs": [],
            "name": "seeOrders",
            "outputs": [
                {
                    "components": [
                        {
                            "internalType": "uint256",
                            "name": "orderID",
                            "type": "uint256"
                        },
                        {
                            "internalType": "string",
                            "name": "productID",
                            "type": "string"
                        },
                        {
                            "internalType": "string",
                            "name": "status",
                            "type": "string"
                        }
                    ],
                    "internalType": "struct SmartShopper.Order[]",
                    "name": "",
                    "type": "tuple[]"
                }
            ],
            "stateMutability": "view",
            "type": "function"
        },
        {
            "inputs": [],
            "name": "seeProductList",
            "outputs": [
                {
                    "components": [
                        {
                            "internalType": "string",
                            "name": "productID",
                            "type": "string"
                        },
                        {
                            "internalType": "string",
                            "name": "productName",
                            "type": "string"
                        },
                        {
                            "internalType": "uint256",
                            "name": "price",
                            "type": "uint256"
                        },
                        {
                            "internalType": "bool",
                            "name": "inStock",
                            "type": "bool"
                        },
                        {
                            "internalType": "address payable",
                            "name": "sellerAddr",
                            "type": "address"
                        }
                    ],
                    "internalType": "struct SmartShopper.Product[]",
                    "name": "",
                    "type": "tuple[]"
                }
            ],
            "stateMutability": "view",
            "type": "function"
        },
        {
            "inputs": [],
            "name": "seeSellerList",
            "outputs": [
                {
                    "components": [
                        {
                            "internalType": "string",
                            "name": "shopName",
                            "type": "string"
                        },
                        {
                            "internalType": "string",
                            "name": "sellerName",
                            "type": "string"
                        },
                        {
                            "internalType": "address",
                            "name": "addr",
                            "type": "address"
                        },
                        {
                            "internalType": "bool",
                            "name": "isActive",
                            "type": "bool"
                        }
                    ],
                    "internalType": "struct SmartShopper.Seller[]",
                    "name": "",
                    "type": "tuple[]"
                }
            ],
            "stateMutability": "view",
            "type": "function"
        },
        {
            "inputs": [
                {
                    "internalType": "uint256",
                    "name": "",
                    "type": "uint256"
                }
            ],
            "name": "sellerList",
            "outputs": [
                {
                    "internalType": "string",
                    "name": "shopName",
                    "type": "string"
                },
                {
                    "internalType": "string",
                    "name": "sellerName",
                    "type": "string"
                },
                {
                    "internalType": "address",
                    "name": "addr",
                    "type": "address"
                },
                {
                    "internalType": "bool",
                    "name": "isActive",
                    "type": "bool"
                }
            ],
            "stateMutability": "view",
            "type": "function"
        },
        {
            "inputs": [
                {
                    "internalType": "string",
                    "name": "_buyerName",
                    "type": "string"
                },
                {
                    "internalType": "string",
                    "name": "_phoneNo",
                    "type": "string"
                },
                {
                    "internalType": "string",
                    "name": "_shippingAddr",
                    "type": "string"
                }
            ],
            "name": "signUpAsBuyer",
            "outputs": [],
            "stateMutability": "nonpayable",
            "type": "function"
        },
        {
            "inputs": [
                {
                    "internalType": "string",
                    "name": "_shopName",
                    "type": "string"
                },
                {
                    "internalType": "string",
                    "name": "_sellerName",
                    "type": "string"
                }
            ],
            "name": "signUpAsSeller",
            "outputs": [],
            "stateMutability": "payable",
            "type": "function"
        }
    ],
    "bytecode": "608060405234801561001057600080fd5b50600080546001600160a01b0319163317905561188a806100326000396000f3fe6080604052600436106100915760003560e01c8063e90befe411610059578063e90befe414610136578063f28ea1c114610158578063f42a1b3114610178578063fce28c6b146101a8578063ff8c6463146101bb57600080fd5b8063103dac2a14610096578063528c87d2146100b8578063ac4bf5e6146100f2578063d0e30db0146100b6578063d62dd58714610114575b600080fd5b3480156100a257600080fd5b506100b66100b1366004611259565b6101ce565b005b3480156100c457600080fd5b506100d86100d33660046112e1565b6102b8565b6040516100e995949392919061134a565b60405180910390f35b3480156100fe57600080fd5b5061010761041b565b6040516100e99190611396565b34801561012057600080fd5b506101296105ce565b6040516100e9919061143c565b34801561014257600080fd5b5061014b61075d565b6040516100e991906114bf565b34801561016457600080fd5b506100b6610173366004611561565b61090a565b34801561018457600080fd5b506101986101933660046112e1565b610be0565b6040516100e994939291906115ce565b6100b66101b6366004611615565b610d40565b6100b66101c9366004611679565b610e39565b3360009081526005602052604090206003015460ff16156102425760405162461bcd60e51b8152602060048201526024808201527f596f75206861766520616c7265616479207369676e65642075702061732062756044820152633cb2b91760e11b60648201526084015b60405180910390fd5b33600090815260056020526040902061025b848261173b565b50336000908152600560205260409020600101610278838261173b565b50336000908152600560205260409020600201610295828261173b565b5050336000908152600560205260409020600301805460ff191660011790555050565b600881815481106102c857600080fd5b90600052602060002090600402016000915090508060000180546102eb906116b6565b80601f0160208091040260200160405190810160405280929190818152602001828054610317906116b6565b80156103645780601f1061033957610100808354040283529160200191610364565b820191906000526020600020905b81548152906001019060200180831161034757829003601f168201915b505050505090806001018054610379906116b6565b80601f01602080910402602001604051908101604052809291908181526020018280546103a5906116b6565b80156103f25780601f106103c7576101008083540402835291602001916103f2565b820191906000526020600020905b8154815290600101906020018083116103d557829003601f168201915b50505050600283015460039093015491929160ff8116915061010090046001600160a01b031685565b60606007805480602002602001604051908101604052809291908181526020016000905b828210156105c55783829060005260206000209060030201604051806080016040529081600082018054610472906116b6565b80601f016020809104026020016040519081016040528092919081815260200182805461049e906116b6565b80156104eb5780601f106104c0576101008083540402835291602001916104eb565b820191906000526020600020905b8154815290600101906020018083116104ce57829003601f168201915b50505050508152602001600182018054610504906116b6565b80601f0160208091040260200160405190810160405280929190818152602001828054610530906116b6565b801561057d5780601f106105525761010080835404028352916020019161057d565b820191906000526020600020905b81548152906001019060200180831161056057829003601f168201915b5050509183525050600291909101546001600160a01b038116602080840191909152600160a01b90910460ff161515604090920191909152908252600192909201910161043f565b50505050905090565b336000908152600660209081526040808320805482518185028101850190935280835260609492939192909184015b828210156105c557838290600052602060002090600302016040518060600160405290816000820154815260200160018201805461063a906116b6565b80601f0160208091040260200160405190810160405280929190818152602001828054610666906116b6565b80156106b35780601f10610688576101008083540402835291602001916106b3565b820191906000526020600020905b81548152906001019060200180831161069657829003601f168201915b505050505081526020016002820180546106cc906116b6565b80601f01602080910402602001604051908101604052809291908181526020018280546106f8906116b6565b80156107455780601f1061071a57610100808354040283529160200191610745565b820191906000526020600020905b81548152906001019060200180831161072857829003601f168201915b505050505081525050815260200190600101906105fd565b60606008805480602002602001604051908101604052809291908181526020016000905b828210156105c557838290600052602060002090600402016040518060a00160405290816000820180546107b4906116b6565b80601f01602080910402602001604051908101604052809291908181526020018280546107e0906116b6565b801561082d5780601f106108025761010080835404028352916020019161082d565b820191906000526020600020905b81548152906001019060200180831161081057829003601f168201915b50505050508152602001600182018054610846906116b6565b80601f0160208091040260200160405190810160405280929190818152602001828054610872906116b6565b80156108bf5780601f10610894576101008083540402835291602001916108bf565b820191906000526020600020905b8154815290600101906020018083116108a257829003601f168201915b5050509183525050600282015460208083019190915260039092015460ff81161515604083015261010090046001600160a01b03166060909101529082526001929092019101610781565b60048360405161091a91906117fb565b9081526040519081900360200190206003015460ff16156109895760405162461bcd60e51b8152602060048201526024808201527f546869732070726f6475637420494420697320616c726561647920696e20737460448201526337b1b59760e11b6064820152608401610239565b33600090815260036020526040902060020154600160a01b900460ff16610a0b5760405162461bcd60e51b815260206004820152603060248201527f596f75206d7573742062652072656769737465642061732073656c6c6572207460448201526f379030b232103090383937b23ab1ba1760811b6064820152608401610239565b6040805160a081018252848152602081018490528082018390526001606082015233608082015290518490600490610a449083906117fb565b90815260405190819003602001902090610a5e908261173b565b5082600485604051610a7091906117fb565b90815260200160405180910390206001019081610a8d919061173b565b5081600485604051610a9f91906117fb565b9081526020016040518091039020600201819055506001600485604051610ac691906117fb565b908152604051908190036020018120600301805492151560ff19909316929092179091553390600490610afa9087906117fb565b90815260405190819003602001902060030180546001600160a01b039290921661010002610100600160a81b031990921691909117905560088054600181018255600091909152815182916004027ff3f7a9fe364faab93b216da50a3214154f22a0a2b415b23a84c8169e8b636ee301908190610b77908261173b565b5060208201516001820190610b8c908261173b565b50604082015160028201556060820151600390910180546080909301516001600160a01b031661010002610100600160a81b0319921515929092166001600160a81b03199093169290921717905550505050565b60078181548110610bf057600080fd5b9060005260206000209060030201600091509050806000018054610c13906116b6565b80601f0160208091040260200160405190810160405280929190818152602001828054610c3f906116b6565b8015610c8c5780601f10610c6157610100808354040283529160200191610c8c565b820191906000526020600020905b815481529060010190602001808311610c6f57829003601f168201915b505050505090806001018054610ca1906116b6565b80601f0160208091040260200160405190810160405280929190818152602001828054610ccd906116b6565b8015610d1a5780601f10610cef57610100808354040283529160200191610d1a565b820191906000526020600020905b815481529060010190602001808311610cfd57829003601f168201915b505050600290930154919250506001600160a01b0381169060ff600160a01b9091041684565b3464746a52880014610d5157600080fd5b33600090815260036020526040902060020154600160a01b900460ff1615610dc95760405162461bcd60e51b815260206004820152602560248201527f596f75206861766520616c7265616479207369676e6564207570206173207365604482015264363632b91760d91b6064820152608401610239565b336000908152600360205260409020610de2838261173b565b50336000908152600360205260409020600101610dff828261173b565b5050336000818152600360205260409020600201805460ff60a01b199092166001600160a81b031990921691909117600160a01b17905550565b3360009081526005602052604090206003015460ff16610ec15760405162461bcd60e51b815260206004820152603860248201527f536f7272792c20796f75206d757374206265207265676973746572656420617360448201527f20627579657220746f206d616b6520616e206f726465722e00000000000000006064820152608401610239565b6000805b60085481101561101a57600060088281548110610ee457610ee4611817565b90600052602060002090600402016000018054610f00906116b6565b80601f0160208091040260200160405190810160405280929190818152602001828054610f2c906116b6565b8015610f795780601f10610f4e57610100808354040283529160200191610f79565b820191906000526020600020905b815481529060010190602001808311610f5c57829003601f168201915b5050505050905083604051602001610f9191906117fb565b6040516020818303038152906040528051906020012081604051602001610fb891906117fb565b60405160208183030381529060405280519060200120036110075760088281548110610fe657610fe6611817565b600091825260209091206003600490920201015460ff161561100757600192505b50806110128161182d565b915050610ec5565b506001811515146110895760405162461bcd60e51b815260206004820152603360248201527f536f7272792c20746869732070726f64756374206973206e6f7420617661696c60448201527230b136329030ba103a34329036b7b6b2b73a1760691b6064820152608401610239565b60048260405161109991906117fb565b90815260200160405180910390206002015434146110b657600080fd5b6004826040516110c691906117fb565b908152604051908190036020018120600301546001600160a01b0361010090910416903480156108fc02916000818181858888f19350505050158015611110573d6000803e3d6000fd5b50600180549060006111218361182d565b90915550600281905560408051606081018252918252602080830185815282518084018452600b81526a496e2070726f677265737360a81b818401528484015233600090815260068352928320805460018181018355918552929093208451600390930201918255518392820190611199908261173b565b50604082015160028201906111ae908261173b565b505050505050565b634e487b7160e01b600052604160045260246000fd5b600082601f8301126111dd57600080fd5b813567ffffffffffffffff808211156111f8576111f86111b6565b604051601f8301601f19908116603f01168101908282118183101715611220576112206111b6565b8160405283815286602085880101111561123957600080fd5b836020870160208301376000602085830101528094505050505092915050565b60008060006060848603121561126e57600080fd5b833567ffffffffffffffff8082111561128657600080fd5b611292878388016111cc565b945060208601359150808211156112a857600080fd5b6112b4878388016111cc565b935060408601359150808211156112ca57600080fd5b506112d7868287016111cc565b9150509250925092565b6000602082840312156112f357600080fd5b5035919050565b60005b838110156113155781810151838201526020016112fd565b50506000910152565b600081518084526113368160208601602086016112fa565b601f01601f19169290920160200192915050565b60a08152600061135d60a083018861131e565b828103602084015261136f818861131e565b6040840196909652505091151560608301526001600160a01b031660809091015292915050565b60006020808301818452808551808352604092508286019150828160051b87010184880160005b8381101561142e57603f198984030185528151608081518186526113e38287018261131e565b915050888201518582038a8701526113fb828261131e565b838a01516001600160a01b0316878b015260609384015115159390960192909252505093860193908601906001016113bd565b509098975050505050505050565b60006020808301818452808551808352604092508286019150828160051b87010184880160005b8381101561142e57603f19898403018552815160608151855288820151818a8701526114918287018261131e565b915050878201519150848103888601526114ab818361131e565b968901969450505090860190600101611463565b60006020808301818452808551808352604092508286019150828160051b87010184880160005b8381101561142e57603f19898403018552815160a0815181865261150c8287018261131e565b915050888201518582038a870152611524828261131e565b838a0151878b01526060808501511515908801526080938401516001600160a01b03169390960192909252505093860193908601906001016114e6565b60008060006060848603121561157657600080fd5b833567ffffffffffffffff8082111561158e57600080fd5b61159a878388016111cc565b945060208601359150808211156115b057600080fd5b506115bd868287016111cc565b925050604084013590509250925092565b6080815260006115e1608083018761131e565b82810360208401526115f3818761131e565b6001600160a01b03959095166040840152505090151560609091015292915050565b6000806040838503121561162857600080fd5b823567ffffffffffffffff8082111561164057600080fd5b61164c868387016111cc565b9350602085013591508082111561166257600080fd5b5061166f858286016111cc565b9150509250929050565b60006020828403121561168b57600080fd5b813567ffffffffffffffff8111156116a257600080fd5b6116ae848285016111cc565b949350505050565b600181811c908216806116ca57607f821691505b6020821081036116ea57634e487b7160e01b600052602260045260246000fd5b50919050565b601f82111561173657600081815260208120601f850160051c810160208610156117175750805b601f850160051c820191505b818110156111ae57828155600101611723565b505050565b815167ffffffffffffffff811115611755576117556111b6565b6117698161176384546116b6565b846116f0565b602080601f83116001811461179e57600084156117865750858301515b600019600386901b1c1916600185901b1785556111ae565b600085815260208120601f198616915b828110156117cd578886015182559484019460019091019084016117ae565b50858210156117eb5787850151600019600388901b60f8161c191681555b5050505050600190811b01905550565b6000825161180d8184602087016112fa565b9190910192915050565b634e487b7160e01b600052603260045260246000fd5b60006001820161184d57634e487b7160e01b600052601160045260246000fd5b506001019056fea2646970667358221220095b4171c0b508737e023a64c2caf49ad580cf04de5a298972f5962c2ee34b2764736f6c63430008110033",
    "sourcePath": "d:/# Y4S1 Courses/Blockchain/Project2-SmartShoppers/SmartShoppers/contracts/smartShopper.sol",
    "compiler": {
        "name": "solc",
        "version": "0.8.17+commit.8df45f5f"
    },
    "functionHashes": {
        "addProduct(string,string,uint256)": "f28ea1c1",
        "deposit()": "d0e30db0",
        "orderProduct(string)": "ff8c6463",
        "productList(uint256)": "528c87d2",
        "seeOrders()": "d62dd587",
        "seeProductList()": "e90befe4",
        "seeSellerList()": "ac4bf5e6",
        "sellerList(uint256)": "f42a1b31",
        "signUpAsBuyer(string,string,string)": "103dac2a",
        "signUpAsSeller(string,string)": "fce28c6b"
    },
    "gasEstimates": {
        "creation": {
            "codeDepositCost": "1256400",
            "executionCost": "25543",
            "totalCost": "1281943"
        },
        "external": {
            "addProduct(string,string,uint256)": "infinite",
            "deposit()": "163",
            "orderProduct(string)": "infinite",
            "productList(uint256)": "infinite",
            "seeOrders()": "infinite",
            "seeProductList()": "infinite",
            "seeSellerList()": "infinite",
            "sellerList(uint256)": "infinite",
            "signUpAsBuyer(string,string,string)": "infinite",
            "signUpAsSeller(string,string)": "infinite"
        }
    }
}